1AIRLINE STANDARD SCHEDULE DATA SET     1                                                                                                                                                      001000001
00000000000000000000000000000000000000000000000000000000000000000000000000000000000000000000000000000000000000000000000000000000000000000000000000000000000000000000000000000000000000000000000000000000
00000000000000000000000000000000000000000000000000000000000000000000000000000000000000000000000000000000000000000000000000000000000000000000000000000000000000000000000000000000000000000000000000000000
00000000000000000000000000000000000000000000000000000000000000000000000000000000000000000000000000000000000000000000000000000000000000000000000000000000000000000000000000000000000000000000000000000000
00000000000000000000000000000000000000000000000000000000000000000000000000000000000000000000000000000000000000000000000000000000000000000000000000000000000000000000000000000000000000000000000000000000
2UAE  0008W13 27OCT1329MAR1415AUG13                             15AUG13C27OCT1329MAR14                                                                                                        0916000002
00000000000000000000000000000000000000000000000000000000000000000000000000000000000000000000000000000000000000000000000000000000000000000000000000000000000000000000000000000000000000000000000000000000
00000000000000000000000000000000000000000000000000000000000000000000000000000000000000000000000000000000000000000000000000000000000000000000000000000000000000000000000000000000000000000000000000000000
00000000000000000000000000000000000000000000000000000000000000000000000000000000000000000000000000000000000000000000000000000000000000000000000000000000000000000000000000000000000000000000000000000000
00000000000000000000000000000000000000000000000000000000000000000000000000000000000000000000000000000000000000000000000000000000000000000000000000000000000000000000000000000000000000000000000000000000
3 AE 59930101J27OCT1328MAR141 3 5 7 TPE03500350+0800  CGO06200620+0800  738                                                     CGO                 L                       F8C23Y129VVFCY160     000003
4 AE 59930101J              AB050TPECGOCZ 3024                                                                                                                                                    000004
3 AE 59940101J27OCT1328MAR141 3 5 7 CGO00200020+0800  TPE02500250+0800  738                                                     CGO                 L                       F8C23Y129VVFCY160     000005
4 AE 59940101J              AB050CGOTPECZ 3023                                                                                                                                                    000006
00000000000000000000000000000000000000000000000000000000000000000000000000000000000000000000000000000000000000000000000000000000000000000000000000000000000000000000000000000000000000000000000000000000
5 AE                                                                                                                                                                                       000006C000007
00000000000000000000000000000000000000000000000000000000000000000000000000000000000000000000000000000000000000000000000000000000000000000000000000000000000000000000000000000000000000000000000000000000
00000000000000000000000000000000000000000000000000000000000000000000000000000000000000000000000000000000000000000000000000000000000000000000000000000000000000000000000000000000000000000000000000000000
00000000000000000000000000000000000000000000000000000000000000000000000000000000000000000000000000000000000000000000000000000000000000000000000000000000000000000000000000000000000000000000000000000000
00000000000000000000000000000000000000000000000000000000000000000000000000000000000000000000000000000000000000000000000000000000000000000000000000000000000000000000000000000000000000000000000000000000
2UAF  0008W13 27OCT1329MAR1415AUG13                             15AUG13C27OCT1329MAR14                                                                                                        0916000008
00000000000000000000000000000000000000000000000000000000000000000000000000000000000000000000000000000000000000000000000000000000000000000000000000000000000000000000000000000000000000000000000000000000
00000000000000000000000000000000000000000000000000000000000000000000000000000000000000000000000000000000000000000000000000000000000000000000000000000000000000000000000000000000000000000000000000000000
00000000000000000000000000000000000000000000000000000000000000000000000000000000000000000000000000000000000000000000000000000000000000000000000000000000000000000000000000000000000000000000000000000000
00000000000000000000000000000000000000000000000000000000000000000000000000000000000000000000000000000000000000000000000000000000000000000000000000000000000000000000000000000000000000000000000000000000
3 AF 34140101J27OCT1303NOV131234567 CAN01500150+0800  NNG03100310+0800  73G                                                     KWL                 L                       F8C23Y88VVFCY119      000009
4 AF 34140101J              AB050CANNNGCZ 3296                                                                                                                                                    000010
3 AF 34270101J27OCT1329MAR141234567 SYX08000800+0800  CAN09250925+0800  321                                                     HRB                 L                       F12C23Y143VVFCY178    000011
4 AF 34270101J              AB050SYXCANCZ 6735                                                                                                                                                    000012
3 AF 34490101J27OCT1310NOV131234567 NNG08500850+0800  CAN09550955+0800  73G                                                     KWL                 L                       F8C23Y88VVFCY119      000013
4 AF 34490101J              AB050NNGCANCZ 3297                                                                                                                                                    000014
3 AF 38960101J27OCT1329MAR141234567 CAN14301430+0800  HAK15401540+0800  733                                                     HAK                 L                       Y145VVY145            000015
4 AF 38960101J              AB050CANHAKCZ 6784                                                                                                                                                    000016
3 AF 44000101J18NOV1327NOV131234567 CAN02100210+0800  KWL03200320+0800  73G                                                     KWL                 L                       F8C23Y88VVFCY119      000017
4 AF 44000101J              AB050CANKWLCZ 3232                                                                                                                                                    000018
3 AF 44120101J27OCT1307DEC131234567 KWL12501250+0800  CAN13501350+0800  73G                                                     KWL                 L                       F8C23Y88VVFCY119      000019
4 AF 44120101J              AB050KWLCANCZ 3233                                                                                                                                                    000020
3 AF 44160101J27OCT1310NOV131234567 CAN00000000+0800  NNG01200120+0800  738                                                     KWL                 L                       F8C23Y132VVFCY163     000021
4 AF 44160101J              AB050CANNNGCZ 3308                                                                                                                                                    000022
3 AF 44180101J27OCT1310NOV131234567 NNG12301230+0800  CAN13351335+0800  738                                                     KWL                 L                       F8C23Y132VVFCY163     000023
4 AF 44180101J              AB050NNGCANCZ 3307                                                                                                                                                    000024
3 AF 44190101J27OCT1329MAR141234567 CAN23502350+0800  YIW01300130+0800  738                                                     SWA                 L                       F8C23Y132VVFCY163     000025
4 AF 44190101J              AB050CANYIWCZ 3727                                                                                                                                                    000026
3 AF 46130101J27OCT1329MAR141234567 YIW08500850+0800  CAN10501050+0800  738                                                     SWA                 L                       F8C23Y132VVFCY163     000027
4 AF 46130101J              AB050YIWCANCZ 3885                                                                                                                                                    000028
3 AF 46190101J28OCT1329MAR14123456  CAN11501150+0800  SWA12501250+0800  738                                                     SWA                 L                       F8C23Y132VVFCY163     000029
4 AF 46190101J              AB050CANSWACZ 3896                                                                                                                                                    000030
3 AF 97160101J27OCT1329MAR141234567 SWA13201320+0800  CAN14151415+0800  738                                                     SWA                 L                       F8C23Y132VVFCY163     000031
4 AF 97160101J              AB050SWACANCZ 3897                                                                                                                                                    000032
00000000000000000000000000000000000000000000000000000000000000000000000000000000000000000000000000000000000000000000000000000000000000000000000000000000000000000000000000000000000000000000000000000000
5 AF                                                                                                                                                                                       000032C000033
00000000000000000000000000000000000000000000000000000000000000000000000000000000000000000000000000000000000000000000000000000000000000000000000000000000000000000000000000000000000000000000000000000000
00000000000000000000000000000000000000000000000000000000000000000000000000000000000000000000000000000000000000000000000000000000000000000000000000000000000000000000000000000000000000000000000000000000
00000000000000000000000000000000000000000000000000000000000000000000000000000000000000000000000000000000000000000000000000000000000000000000000000000000000000000000000000000000000000000000000000000000
00000000000000000000000000000000000000000000000000000000000000000000000000000000000000000000000000000000000000000000000000000000000000000000000000000000000000000000000000000000000000000000000000000000
2UCZ  0008W13 27OCT1329MAR1415AUG13                             15AUG13C27OCT1329MAR14                                                                                                        0916000034
00000000000000000000000000000000000000000000000000000000000000000000000000000000000000000000000000000000000000000000000000000000000000000000000000000000000000000000000000000000000000000000000000000000
00000000000000000000000000000000000000000000000000000000000000000000000000000000000000000000000000000000000000000000000000000000000000000000000000000000000000000000000000000000000000000000000000000000
00000000000000000000000000000000000000000000000000000000000000000000000000000000000000000000000000000000000000000000000000000000000000000000000000000000000000000000000000000000000000000000000000000000
00000000000000000000000000000000000000000000000000000000000000000000000000000000000000000000000000000000000000000000000000000000000000000000000000000000000000000000000000000000000000000000000000000000
3 CZ  3010101J27OCT1329MAR141234567 CAN00200020+0800  SYD09400940+1100  332                                                     CAN      CZ  302    S                       F28C47Y142VVFCY217    000035
3 CZ  3020101J27OCT1317NOV13  3 5 7 SYD11151115+1100  CAN21002100+0800  332                                                     CAN      CZ 3537    S                       F28C47Y142VVFCY217    000036
3 CZ  3020201J28OCT1324MAR141       SYD11151115+1100  CAN21002100+0800  332                                                     CAN      CZ 3105    S                       F28C47Y142VVFCY217    000037
3 CZ  3020301J29OCT1312NOV13 2      SYD11151115+1100  CAN21002100+0800  332                                                     CAN      CZ  355    S                       F28C47Y142VVFCY217    000038
3 CZ  3020401J31OCT1316NOV13   4 6  SYD11151115+1100  CAN21002100+0800  332                                                     CAN      CZ 3571    S                       F28C47Y142VVFCY217    000039
3 CZ  3020501J19NOV1327MAR14 2 4 6  SYD11151115+1100  CAN21002100+0800  332                                                     CAN      CZ  355    S                       F28C47Y142VVFCY217    000040
3 CZ  3020601J20NOV1326MAR14  3 5   SYD11151115+1100  CAN21002100+0800  332                                                     CAN      CZ 3571    S                       F28C47Y142VVFCY217    000041
3 CZ  3020701J24NOV1323MAR14      7 SYD11151115+1100  CAN21002100+0800  332                                                     CAN      CZ 3537    S                       F28C47Y142VVFCY217    000042
3 CZ  3020801J28MAR1428MAR14    5   SYD11151115+1100  CAN21002100+0800  332                                                     CAN      CZ 3537    S                       F28C47Y142VVFCY217    000043
3 CZ  3020901J29MAR1429MAR14     6  SYD11151115+1100  CAN21002100+0800  332                                                     CAN      CZ  000    S                       F28C47Y142VVFCY217    000044
3 CZ  3030101J27OCT1315DEC13 2 4567 CAN01300130+0800  LHR14501450+0000  787                                                     CAN      CZ  304    S                       F4C24Y200VVFCY228     000045
3 CZ  3030201J16DEC1319JAN141234567 CAN01300130+0800  LHR14501450+0000  787                                                     CAN      CZ  304    S                       F4C24Y200VVFCY228     000046
3 CZ  3030301J21JAN1429MAR14 2 4567 CAN01300130+0800  LHR14501450+0000  787                                                     CAN      CZ  304    S                       F4C24Y200VVFCY228     000047
3 CZ  3040101J27OCT1301DEC13 2    7 LHR22302230+0000  CAN10301030+0800  787                                                     CAN      CZ 3523    S                       F4C24Y200VVFCY228     000048
3 CZ  3040201J31OCT1330NOV13   456  LHR22302230+0000  CAN10301030+0800  787                                                     CAN      CZ 3101    S                       F4C24Y200VVFCY228     000049
3 CZ  3040301J03DEC1315DEC13 2 4567 LHR22302230+0000  CAN10301030+0800  787                                                     CAN      CZ 3101    S                       F4C24Y200VVFCY228     000050
3 CZ  3040401J16DEC1319JAN141234567 LHR22302230+0000  CAN10301030+0800  787                                                     CAN      CZ 3101    S                       F4C24Y200VVFCY228     000051
3 CZ  3040501J21JAN1401MAR14 2 4567 LHR22302230+0000  CAN10301030+0800  787                                                     CAN      CZ 3101    S                       F4C24Y200VVFCY228     000052
3 CZ  3040601J02MAR1425MAR14 2    7 LHR22302230+0000  CAN10301030+0800  787                                                     CAN      CZ 3523    S                       F4C24Y200VVFCY228     000053
3 CZ  3040701J06MAR1427MAR14   456  LHR22302230+0000  CAN10301030+0800  787                                                     CAN      CZ 3101    S                       F4C24Y200VVFCY228     000054
3 CZ  3040801J28MAR1428MAR14    5   LHR22302230+0000  CAN10301030+0800  787                                                     CAN      CZ  305    S                       F4C24Y200VVFCY228     000055
3 CZ  3040901J29MAR1429MAR14     6  LHR22302230+0000  CAN10301030+0800  787                                                     CAN      CZ  000    S                       F4C24Y200VVFCY228     000056
3 CZ  3050101J27OCT1328MAR141234567 CAN16301630+0800  AKL04000400+1300  787                                                     CAN      CZ  306    S                       F4C24Y200VVFCY228     000057
3 CZ  3050201J29MAR1429MAR14     6  CAN16301630+0800  AKL04000400+1300  787                                                     CAN      CZ  000    S                       F4C24Y200VVFCY228     000058
3 CZ  3060101J27OCT1327OCT13      7 AKL10001000+1300  CAN22002200+0800  332                                                     CAN      CZ  301    S                       F28C47Y142VVFCY217    000059
3 CZ  3060201J28OCT1302DEC13123 56  AKL10001000+1300  CAN22002200+0800  787                                                     CAN      CZ  385    S                       F4C24Y200VVFCY228     000060
3 CZ  3060301J31OCT1328NOV13   4    AKL10001000+1300  CAN22002200+0800  787                                                     CAN      CZ  303    S                       F4C24Y200VVFCY228     000061
3 CZ  3060401J03NOV1324NOV13      7 AKL10001000+1300  CAN22002200+0800  787                                                     CAN      CZ  3854   S                       F4C24Y200VVFCY228     000062
3 CZ  3060501J01DEC1301DEC13      7 AKL10001000+1300  CAN22002200+0800  787                                                     CAN      CZ  3034   S                       F4C24Y200VVFCY228     000063
3 CZ  3060601J03DEC1310DEC13 2      AKL10001000+1300  CAN22002200+0800  787                                                     CAN      CZ 3103    S                       F4C24Y200VVFCY228     000064
3 CZ  3060701J04DEC1312DEC13  345   AKL10001000+1300  CAN22002200+0800  787                                                     CAN      CZ  385    S                       F4C24Y200VVFCY228     000065
3 CZ  3060801J07DEC1314DEC13     6  AKL10001000+1300  CAN22002200+0800  787                                                     CAN      CZ  303    S                       F4C24Y200VVFCY228     000066
3 CZ  3060901J08DEC1308DEC13      7 AKL10001000+1300  CAN22002200+0800  787                                                     CAN      CZ  3852   S                       F4C24Y200VVFCY228     000067
3 CZ  3061001J09DEC1309DEC131       AKL10001000+1300  CAN22002200+0800  787                                                     CAN      CZ  3033   S                       F4C24Y200VVFCY228     000068
3 CZ  3061101J13DEC1317JAN14 23 5 7 AKL10001000+1300  CAN22002200+0800  787                                                     CAN      CZ  385    S                       F4C24Y200VVFCY228     000069
3 CZ  3061201J16DEC1313JAN141       AKL10001000+1300  CAN22002200+0800  787                                                     CAN      CZ  3031   S                       F4C24Y200VVFCY228     000070
3 CZ  3061301J19DEC1318JAN14   4 6  AKL10001000+1300  CAN22002200+0800  787                                                     CAN      CZ  303    S                       F4C24Y200VVFCY228     000071
3 CZ  3061401J19JAN1416FEB14      7 AKL10001000+1300  CAN22002200+0800  787                                                     CAN      CZ  3852   S                       F4C24Y200VVFCY228     000072
3 CZ  3061501J20JAN1417FEB141       AKL10001000+1300  CAN22002200+0800  787                                                     CAN      CZ  3033   S                       F4C24Y200VVFCY228     000073
3 CZ  3061601J21JAN1425FEB14 2      AKL10001000+1300  CAN22002200+0800  787                                                     CAN      CZ 3103    S                       F4C24Y200VVFCY228     000074
3 CZ  3061701J22JAN1428FEB14  345   AKL10001000+1300  CAN22002200+0800  787                                                     CAN      CZ  385    S                       F4C24Y200VVFCY228     000075
3 CZ  3061801J25JAN1422FEB14     6  AKL10001000+1300  CAN22002200+0800  787                                                     CAN      CZ  303    S                       F4C24Y200VVFCY228     000076
3 CZ  3061901J23FEB1423FEB14      7 AKL10001000+1300  CAN22002200+0800  787                                                     CAN      CZ  3034   S                       F4C24Y200VVFCY228     000077
3 CZ  3062001J24FEB1424FEB141       AKL10001000+1300  CAN22002200+0800  787                                                     CAN      CZ  3851   S                       F4C24Y200VVFCY228     000078
3 CZ  3062101J01MAR1401MAR14     6  AKL10001000+1300  CAN22002200+0800  787                                                     CAN      CZ  000    S                       F4C24Y200VVFCY228     000079
3 CZ  3062201J02MAR1423MAR14      7 AKL10001000+1300  CAN22002200+0800  787                                                     CAN      CZ  3854   S                       F4C24Y200VVFCY228     000080
3 CZ  3062301J03MAR1428MAR14123 56  AKL10001000+1300  CAN22002200+0800  787                                                     CAN      CZ  385    S                       F4C24Y200VVFCY228     000081
3 CZ  3062401J06MAR1427MAR14   4    AKL10001000+1300  CAN22002200+0800  787                                                     CAN      CZ  303    S                       F4C24Y200VVFCY228     000082
3 CZ  3062501J29MAR1429MAR14     6  AKL10001000+1300  CAN22002200+0800  787                                                     CAN      CZ  000    S                       F4C24Y200VVFCY228     000083
3 CZ  3070101J27OCT1328MAR141234567 CAN15551555+0800  AMS04550455+0100  332                                                     CAN      CZ  308    S                       F28C47Y142VVFCY217    000084
3 CZ  3070201J29MAR1429MAR14     6  CAN15551555+0800  AMS04550455+0200  332                                                     CAN      CZ  000    S                       F28C47Y142VVFCY217    000085
3 CZ  3080101J27OCT1327OCT13      7 AMS11301130+0100  CAN22452245+0800  332                                                     CAN      CZ  000    S                       F28C47Y142VVFCY217    000086
3 CZ  3080201J28OCT1318NOV131  4 6  AMS11301130+0100  CAN22452245+0800  332                                                     CAN      CZ 3537    S                       F28C47Y142VVFCY217    000087
3 CZ  3080301J29OCT1312NOV13 2      AMS11301130+0100  CAN22452245+0800  332                                                     CAN      CZ  301    S                       F28C47Y142VVFCY217    000088
3 CZ  3080401J30OCT1317NOV13  3 5 7 AMS11301130+0100  CAN22452245+0800  332                                                     CAN      CZ  3011   S                       F28C47Y142VVFCY217    000089
3 CZ  3080501J19NOV1327MAR14 23456  AMS11301130+0100  CAN22452245+0800  332                                                     CAN      CZ  301    S                       F28C47Y142VVFCY217    000090
3 CZ  3080601J24NOV1323MAR14      7 AMS11301130+0100  CAN22452245+0800  332                                                     CAN      CZ  3011   S                       F28C47Y142VVFCY217    000091
3 CZ  3080701J25NOV1324MAR141       AMS11301130+0100  CAN22452245+0800  332                                                     CAN      CZ 3537    S                       F28C47Y142VVFCY217    000092
3 CZ  3080801J28MAR1429MAR14    56  AMS11301130+0100  CAN22452245+0800  332                                                     CAN      CZ  000    S                       F28C47Y142VVFCY217    000093
3 CZ  3090101J27OCT1329MAR1412 4567 HKG05200520+0800  PEK08300830+0800  321                                                     PEK      CZ 6931    S                       F12C23Y143VVFCY178    000094
3 CZ  3090201J30OCT1326MAR14  3     HKG05200520+0800  PEK08300830+0800  321                                                     PEK      CZ 3645    S                       F12C23Y143VVFCY178    000095
3 CZ  3100101J27OCT1329MAR141234567 PEK00500050+0800  HKG04200420+0800  321                                                     PEK      CZ  309    S                       F12C23Y143VVFCY178    000096
3 CZ  3110101J27OCT1329MAR141234567 SWA01100110+0800  HKG02050205+0800  738                                                     SWA      CZ  312    S                       F8C23Y132VVFCY163     000097
3 CZ  3120101J27OCT1329MAR141234567 HKG03050305+0800  SWA04000400+0800  738                                                     SWA      CZ 3861    S                       F8C23Y132VVFCY163     000098
3 CZ  3130101J27OCT1329MAR141234567 PVG00050005+0800  ICN01500150+0900  738                                                     WUH      CZ  314    S                       F8C23Y129VVFCY160     000099
3 CZ  3140101J27OCT1329MAR141234567 ICN02400240+0900  PVG04400440+0800  738                                                     WUH      CZ 3544    S                       F8C23Y129VVFCY160     000100
3 CZ  3150101J27OCT1329MAR141234567 PEK11101110+0800  ICN13201320+0900  321                                                     PEK      CZ  316    S                       F12C23Y143VVFCY178    000101
3 CZ  3160101J27OCT1328MAR141234567 ICN14201420+0900  PEK16201620+0800  321                                                     PEK      CZ 6161    S                       F12C23Y143VVFCY178    000102
3 CZ  3160201J29MAR1429MAR14     6  ICN14201420+0900  PEK16201620+0800  321                                                     PEK      CZ  000    S                       F12C23Y143VVFCY178    000103
3 CZ  3170101J27OCT1329MAR14   4567 PEK00200020+0800  GMP02300230+0900  320                                                     PEK      CZ  318    S                       F8C23Y120VVFCY151     000104
3 CZ  3170201J28OCT1326MAR14123     PEK00200020+0800  GMP02300230+0900  320                                                     PEK      CZ  318    S                       F8C23Y120VVFCY151     000105
4 CZ  3170201J              AB899PEKGMPREINPUT                                                                                                                                                    000106
3 CZ  3180101J27OCT1329MAR14   4567 GMP03300330+0900  PEK05350535+0800  320                                                     PEK      CZ  323    S                       F8C23Y120VVFCY151     000107
3 CZ  3180201J28OCT1326MAR14123     GMP03300330+0900  PEK05350535+0800  320                                                     PEK      CZ  323    S                       F8C23Y120VVFCY151     000108
4 CZ  3180201J              AB899GMPPEKREINPUT                                                                                                                                                    000109
3 CZ  3190101J29OCT1325MAR14 2   6  CAN13451345+0800  PER22002200+0800  332                                                     CAN      CZ  320    S                       F28C47Y142VVFCY217    000110
3 CZ  3190201J31OCT1327MAR14   4    CAN13451345+0800  PER22002200+0800  332                                                     CAN      CZ  320    S                       F28C47Y142VVFCY217    000111
4 CZ  3190201J              AB899CANPERREINPUT                                                                                                                                                    000112
3 CZ  3190301J29MAR1429MAR14     6  CAN13451345+0800  PER22002200+0800  332                                                     CAN      CZ  000    S                       F28C47Y142VVFCY217    000113
3 CZ  3200101J27OCT1317NOV13      7 PER00300030+0800  CAN08550855+0800  332                                                     CAN      CZ  381    S                       F28C47Y142VVFCY217    000114
3 CZ  3200201J30OCT1313NOV13  3     PER00300030+0800  CAN08550855+0800  332                                                     CAN      CZ  347    S                       F28C47Y142VVFCY217    000115
3 CZ  3200301J01NOV1315NOV13    5   PER00300030+0800  CAN08550855+0800  332                                                     CAN      CZ  381    S                       F28C47Y142VVFCY217    000116
4 CZ  3200301J              AB899PERCANREINPUT                                                                                                                                                    000117
3 CZ  3200401J20NOV1326MAR14  3   7 PER00300030+0800  CAN08550855+0800  332                                                     CAN      CZ  347    S                       F28C47Y142VVFCY217    000118
3 CZ  3200501J22NOV1328MAR14    5   PER00300030+0800  CAN08550855+0800  332                                                     CAN      CZ  347    S                       F28C47Y142VVFCY217    000119
4 CZ  3200501J              AB899PERCANREINPUT                                                                                                                                                    000120
3 CZ  3210101J27OCT1328MAR141234567 CAN13001300+0800  MEL22402240+1100  33A                                                     CAN      CZ  344    S                       F30C48Y197VVFCY275    000121
3 CZ  3210201J29MAR1429MAR14     6  CAN13001300+0800  MEL22402240+1100  33A                                                     CAN      CZ  000    S                       F30C48Y197VVFCY275    000122
3 CZ  3220101J27OCT1328MAR141234567 MEL12301230+1100  CAN22002200+0800  33A                                                     CAN      CZ  357    S                       F30C48Y197VVFCY275    000123
3 CZ  3220201J29MAR1429MAR14     6  MEL12301230+1100  CAN22002200+0800  33A                                                     CAN      CZ  000    S                       F30C48Y197VVFCY275    000124
3 CZ  3230101J27OCT1328MAR141234567 PEK08300830+0800  CAN11451145+0800  320                                                     PEK                 S                       F8C23Y120VVFCY151     000125
3 CZ  3230102J27OCT1328MAR141234567 CAN13251325+0800  PNH16301630+0700  320                                                     PEK      CZ  324    S                       F8C23Y120VVFCY151     000126
3 CZ  3230201J29MAR1429MAR14     6  PEK08300830+0800  CAN11451145+0800  320                                                     PEK                 S                       F8C23Y120VVFCY151     000127
3 CZ  3230202J29MAR1429MAR14     6  CAN13251325+0800  PNH16301630+0700  320                                                     PEK      CZ  000    S                       F8C23Y120VVFCY151     000128
3 CZ  3240101J27OCT1329MAR141234567 PNH01000100+0700  CAN03500350+0800  320                                                     PEK                 S                       F8C23Y120VVFCY151     000129
3 CZ  3240102J27OCT1329MAR141234567 CAN05000500+0800  PEK08250825+0800  320                                                     PEK      CZ 6163    S                       F8C23Y120VVFCY151     000130
3 CZ  3250101J27OCT1328MAR141234567 CAN13051305+0800  SYD22052205+1100  380                                                     PEK      CZ  326    S                       F8C70Y424VVFCY502     000131
3 CZ  3250201J29MAR1429MAR14     6  CAN13051305+0800  SYD22052205+1100  380                                                     PEK      CZ  000    S                       F8C70Y424VVFCY502     000132
3 CZ  3260101J27OCT1327OCT13      7 SYD00150015+1100  CAN09300930+0800  XXX                                                     PEK      CZ  000    S                       VV0                   000133
3 CZ  3260201J28OCT1303NOV131 34 67 SYD00150015+1100  CAN09300930+0800  380                                                     PEK      CZ  327    S                       F8C70Y424VVFCY502     000134
3 CZ  3260301J29OCT1301NOV13 2  5   SYD00150015+1100  CAN09300930+0800  380                                                     PEK      CZ  325    S                       F8C70Y424VVFCY502     000135
3 CZ  3260401J04NOV1329MAR141234567 SYD00150015+1100  CAN09300930+0800  380                                                     PEK      CZ  327    S                       F8C70Y424VVFCY502     000136
3 CZ  3270101J27OCT1302NOV131234567 CAN13301330+0800  LAX02000200-0700  380                                                     PEK      CZ  328    S                       F8C70Y424VVFCY502     000137
3 CZ  3270201J03NOV1308MAR141234567 CAN13301330+0800  LAX02000200-0800  380                                                     PEK      CZ  328    S                       F8C70Y424VVFCY502     000138
3 CZ  3270301J09MAR1428MAR141234567 CAN13301330+0800  LAX02000200-0700  380                                                     PEK      CZ  328    S                       F8C70Y424VVFCY502     000139
3 CZ  3270401J29MAR1429MAR14     6  CAN13301330+0800  LAX02000200-0700  380                                                     PEK      CZ  000    S                       F8C70Y424VVFCY502     000140
3 CZ  3280101J27OCT1303NOV131234567 LAX06000600-0700  CAN21202120+0800  380                                                     PEK      CZ 3099    S                       F8C70Y424VVFCY502     000141
3 CZ  3280201J04NOV1309MAR141234567 LAX06000600-0800  CAN21202120+0800  380                                                     PEK      CZ 3099    S                       F8C70Y424VVFCY502     000142
3 CZ  3280301J10MAR1428MAR141234567 LAX06000600-0700  CAN21202120+0800  380                                                     PEK      CZ 3099    S                       F8C70Y424VVFCY502     000143
3 CZ  3280401J29MAR1429MAR14     6  LAX06000600-0700  CAN21202120+0800  380                                                     PEK      CZ  000    S                       F8C70Y424VVFCY502     000144
3 CZ  3290101J27OCT1302NOV131234567 CAN06000600+0800  YVR17101710-0700  77B                                                     CAN      CZ  330    S                       F24C51Y207VVFCY282    000145
3 CZ  3290201J03NOV1308MAR141234567 CAN06000600+0800  YVR17101710-0800  77B                                                     CAN      CZ  330    S                       F24C51Y207VVFCY282    000146
3 CZ  3290301J09MAR1429MAR141234567 CAN06000600+0800  YVR17101710-0700  77B                                                     CAN      CZ  330    S                       F24C51Y207VVFCY282    000147
3 CZ  3300101J27OCT1302NOV131234567 YVR19301930-0700  CAN09200920+0800  77B                                                     CAN      CZ  383    S                       F24C51Y207VVFCY282    000148
3 CZ  3300201J03NOV1308MAR141234567 YVR19301930-0800  CAN09200920+0800  77B                                                     CAN      CZ  383    S                       F24C51Y207VVFCY282    000149
3 CZ  3300301J09MAR1428MAR141234567 YVR19301930-0700  CAN09200920+0800  77B                                                     CAN      CZ  383    S                       F24C51Y207VVFCY282    000150
3 CZ  3300401J29MAR1429MAR14     6  YVR19301930-0700  CAN09200920+0800  77B                                                     CAN      CZ  000    S                       F24C51Y207VVFCY282    000151
3 CZ  3350101J04DEC1328FEB14  3 5 7 CAN06300630+0800  AKL18001800+1300  787                                                     CAN      CZ  336    S                       F4C24Y200VVFCY228     000152
3 CZ  3360101J04DEC1311DEC13  3     AKL21002100+1300  CAN09000900+0800  787                                                     CAN      CZ 3101    S                       F4C24Y200VVFCY228     000153
3 CZ  3360201J06DEC1315DEC13    5 7 AKL21002100+1300  CAN09000900+0800  787                                                     CAN      CZ 3523    S                       F4C24Y200VVFCY228     000154
3 CZ  3360301J18DEC1319JAN14  3 5 7 AKL21002100+1300  CAN09000900+0800  787                                                     CAN      CZ 3523    S                       F4C24Y200VVFCY228     000155
3 CZ  3360401J22JAN1426FEB14  3     AKL21002100+1300  CAN09000900+0800  787                                                     CAN      CZ 3101    S                       F4C24Y200VVFCY228     000156
3 CZ  3360501J24JAN1428FEB14    5 7 AKL21002100+1300  CAN09000900+0800  787                                                     CAN      CZ 3523    S                       F4C24Y200VVFCY228     000157
3 CZ  3370101J27OCT1328MAR141234567 HAK23002300+0800  CAN00050005+0800  321                                                     SYX                 S                       F12C23Y143VVFCY178    000158
3 CZ  3370102J28OCT1329MAR141234567 CAN01200120+0800  ICN04350435+0900  321                                                     SYX      CZ  338    S                       F12C23Y143VVFCY178    000159
3 CZ  3380101J27OCT1329MAR141234567 ICN05350535+0900  CAN09400940+0800  321                                                     SYX                 S                       F12C23Y143VVFCY178    000160
3 CZ  3380102J27OCT1329MAR141234567 CAN10501050+0800  HAK12001200+0800  321                                                     SYX      CZ 6779    S                       F12C23Y143VVFCY178    000161
3 CZ  3390101J27OCT1328MAR141234567 CAN08200820+0800  ICN11351135+0900  321                                                     CAN      CZ  340    S                       F12C23Y143VVFCY178    000162
3 CZ  3390201J29MAR1429MAR14     6  CAN08200820+0800  ICN11351135+0900  321                                                     CAN      CZ  000    S                       F12C23Y143VVFCY178    000163
3 CZ  3400101J27OCT1329MAR141234567 ICN01550155+0900  CAN06000600+0800  321                                                     CAN      CZ  363    S                       F12C23Y143VVFCY178    000164
3 CZ  3410101J28OCT1328MAR141   5   MXZ04500450+0800  HKG06150615+0800  E90                                                     CAN      CZ  342    S                       F6C15Y75VVFCY96       000165
3 CZ  3420101J28OCT1328MAR141   5   HKG07050705+0800  MXZ08050805+0800  E90                                                     CAN      CZ 3334    S                       F6C15Y75VVFCY96       000166
3 CZ  3430101J27OCT1329MAR141234567 CAN01000100+0800  MEL10301030+1100  33A                                                     CAN      CZ  322    S                       F30C48Y197VVFCY275    000167
3 CZ  3440101J27OCT1327OCT13      7 MEL00300030+1100  CAN10101010+0800  330                                                     CAN      CZ 3097    S                       F24C49Y184VVFCY257    000168
3 CZ  3440201J28OCT1328MAR141234567 MEL00300030+1100  CAN10101010+0800  33A                                                     CAN      CZ  343    S                       F30C48Y197VVFCY275    000169
3 CZ  3440301J29MAR1429MAR14     6  MEL00300030+1100  CAN10101010+0800  33A                                                     CAN      CZ  000    S                       F30C48Y197VVFCY275    000170
3 CZ  3450101J27OCT1328MAR141234567 PEK16501650+0800  AMS03400340+0100  332                                                     CAN      CZ  346    S                       F28C47Y142VVFCY217    000171
3 CZ  3450201J29MAR1429MAR14     6  PEK16501650+0800  AMS03400340+0200  332                                                     CAN      CZ  000    S                       F28C47Y142VVFCY217    000172
3 CZ  3460101J27OCT1327OCT13      7 AMS12401240+0100  PEK22102210+0800  333                                                     PEK      CZ  000    S                       F28C47Y208VVFCY283    000173
3 CZ  3460201J28OCT1328MAR141234567 AMS12401240+0100  PEK22102210+0800  332                                                     CAN      CZ 3000    S                       F28C47Y142VVFCY217    000174
3 CZ  3460301J29MAR1429MAR14     6  AMS12401240+0100  PEK22102210+0800  332                                                     CAN      CZ  000    S                       F28C47Y142VVFCY217    000175
3 CZ  3470101J27OCT1328MAR141234567 CAN16201620+0800  CDG05400540+0100  332                                                     CAN      CZ  348    S                       F28C47Y142VVFCY217    000176
3 CZ  3480101J27OCT1327OCT13      7 CDG10451045+0100  CAN22402240+0800  332                                                     CAN      CZ  3011   S                       F28C47Y142VVFCY217    000177
3 CZ  3480201J28OCT1324MAR141       CDG10451045+0100  CAN22402240+0800  332                                                     CAN      CZ 3571    S                       F28C47Y142VVFCY217    000178
3 CZ  3480301J29OCT1312NOV13 2      CDG10451045+0100  CAN22402240+0800  332                                                     CAN      CZ 3537    S                       F28C47Y142VVFCY217    000179
3 CZ  3480401J30OCT1317NOV13  3 5 7 CDG10451045+0100  CAN22402240+0800  332                                                     CAN      CZ  301    S                       F28C47Y142VVFCY217    000180
3 CZ  3480501J31OCT1316NOV13   4 6  CDG10451045+0100  CAN22402240+0800  332                                                     CAN      CZ  355    S                       F28C47Y142VVFCY217    000181
3 CZ  3480601J19NOV1327MAR14 23456  CDG10451045+0100  CAN22402240+0800  332                                                     CAN      CZ 3537    S                       F28C47Y142VVFCY217    000182
3 CZ  3480701J24NOV1323MAR14      7 CDG10451045+0100  CAN22402240+0800  332                                                     CAN      CZ  301    S                       F28C47Y142VVFCY217    000183
3 CZ  3480801J28MAR1428MAR14    5   CDG10451045+0100  CAN22402240+0800  332                                                     CAN      CZ  301    S                       F28C47Y142VVFCY217    000184
3 CZ  3480901J29MAR1429MAR14     6  CDG10451045+0100  CAN22402240+0800  332                                                     CAN      CZ  000    S                       F28C47Y142VVFCY217    000185
3 CZ  3490101J27OCT1329MAR141234567 CAN00250025+0800  KUL04250425+0800  738                                                     CAN      CZ  350    S                       F8C23Y132VVFCY163     000186
3 CZ  3500101J27OCT1329MAR141234567 KUL05250525+0800  CAN09300930+0800  738                                                     CAN      CZ 3697    S                       F8C23Y132VVFCY163     000187
3 CZ  3510101J27OCT1328MAR141234567 SHE05000500+0800  CAN09000900+0800  321                                                     SHE                 S                       F12C23Y143VVFCY178    000188
3 CZ  3510102J27OCT1328MAR141234567 CAN10301030+0800  SIN14301430+0800  321                                                     SHE      CZ  352    S                       F12C23Y143VVFCY178    000189
3 CZ  3510201J29MAR1429MAR14     6  SHE05000500+0800  CAN09000900+0800  321                                                     SHE                 S                       F12C23Y143VVFCY178    000190
3 CZ  3510202J29MAR1429MAR14     6  CAN10301030+0800  SIN14301430+0800  321                                                     SHE      CZ  000    S                       F12C23Y143VVFCY178    000191
3 CZ  3520101J27OCT1329MAR141234567 SIN00000000+0800  CAN04000400+0800  321                                                     SHE                 S                       F12C23Y143VVFCY178    000192
3 CZ  3520102J27OCT1329MAR141234567 CAN05200520+0800  SHE09000900+0800  321                                                     SHE      CZ 6109    S                       F12C23Y143VVFCY178    000193
3 CZ  3530101J27OCT1329MAR141234567 CAN00300030+0800  SIN04300430+0800  320                                                     CAN      CZ  354    S                       F8C23Y120VVFCY151     000194
3 CZ  3540101J27OCT1329MAR141234567 SIN05300530+0800  CAN09350935+0800  320                                                     CAN      CZ 3489    S                       F8C23Y120VVFCY151     000195
3 CZ  3550101J27OCT1328MAR14  3 5 7 CAN06150615+0800  SVO16301630+0400  332                                                     CAN      CZ  356    S                       F28C47Y142VVFCY217    000196
3 CZ  3560101J27OCT1326MAR14  3 5 7 SVO18301830+0400  CAN03500350+0800  332                                                     CAN      CZ  347    S                       F28C47Y142VVFCY217    000197
3 CZ  3560201J28MAR1428MAR14    5   SVO18301830+0400  CAN03500350+0800  332                                                     CAN      CZ  307    S                       F28C47Y142VVFCY217    000198
3 CZ  3570101J27OCT1329MAR141234567 CAN00500050+0800  BKK03500350+0700  33A                                                     CAN      CZ  358    S                       F30C48Y197VVFCY275    000199
3 CZ  3580101J27OCT1329MAR141234567 BKK04550455+0700  CAN07450745+0800  33A                                                     CAN      CZ  321    S                       F30C48Y197VVFCY275    000200
3 CZ  3590101J27OCT1329MAR141234567 CAN10501050+0800  DEL17051705+0530  752                                                     URC      CZ  360    S                       F8C29Y153VVFCY190     000201
3 CZ  3600101J27OCT1328MAR141234567 DEL18151815+0530  CAN22502250+0800  752                                                     URC      CZ 6886    S                       F8C29Y153VVFCY190     000202
3 CZ  3600201J29MAR1429MAR14     6  DEL18151815+0530  CAN22502250+0800  752                                                     URC      CZ  000    S                       F8C29Y153VVFCY190     000203
3 CZ  3610101J27OCT1328MAR141234567 CGO08300830+0800  CAN10451045+0800  738                                                     CGO                 S                       F8C23Y129VVFCY160     000204
4 CZ  3610101J              AB010CGOCANMF  361                                                                                                                                                    000205
3 CZ  3610102J27OCT1328MAR141234567 CAN11451145+0800  BKK14301430+0700  738                                                     CGO      CZ  362    S                       F8C23Y129VVFCY160     000206
4 CZ  3610102J              BC010CANBKKMF  361                                                                                                                                                    000207
3 CZ  3610201J29MAR1429MAR14     6  CGO08300830+0800  CAN10451045+0800  738                                                     CGO                 S                       F8C23Y129VVFCY160     000208
4 CZ  3610201J              AB010CGOCANMF  361                                                                                                                                                    000209
3 CZ  3610202J29MAR1429MAR14     6  CAN11451145+0800  BKK14301430+0700  738                                                     CGO      CZ  000    S                       F8C23Y129VVFCY160     000210
4 CZ  3610202J              BC010CANBKKMF  361                                                                                                                                                    000211
3 CZ  3620101J27OCT1329MAR141234567 BKK01400140+0700  CAN04200420+0800  738                                                     CGO                 S                       F8C23Y129VVFCY160     000212
4 CZ  3620101J              AB010BKKCANMF  362                                                                                                                                                    000213
3 CZ  3620102J27OCT1329MAR141234567 CAN05550555+0800  CGO08100810+0800  738                                                     CGO      CZ 3619    S                       F8C23Y129VVFCY160     000214
4 CZ  3620102J              BC010CANCGOMF  362                                                                                                                                                    000215
3 CZ  3630101J27OCT1329MAR141234567 CAN07550755+0800  BKK10551055+0700  321                                                     CAN      CZ  364    S                       F12C23Y143VVFCY178    000216
3 CZ  3640101J27OCT1325JAN141234567 BKK11551155+0700  CAN14451445+0800  321                                                     CAN      CZ 3031    S                       F12C23Y143VVFCY178    000217
3 CZ  3640201J26JAN1425FEB141234567 BKK11551155+0700  CAN14451445+0800  321                                                     CAN      CZ 3443    S                       F12C23Y143VVFCY178    000218
3 CZ  3640301J26FEB1428MAR141234567 BKK11551155+0700  CAN14451445+0800  321                                                     CAN      CZ 3031    S                       F12C23Y143VVFCY178    000219
3 CZ  3640401J29MAR1429MAR14     6  BKK11551155+0700  CAN14451445+0800  321                                                     CAN      CZ  000    S                       F12C23Y143VVFCY178    000220
3 CZ  3650101J27OCT1328MAR141234567 CAN09200920+0800  KUL13201320+0800  320                                                     HHA      CZ  366    S                       F8C23Y120VVFCY151     000221
3 CZ  3650201J29MAR1429MAR14     6  CAN09200920+0800  KUL13201320+0800  320                                                     HHA      CZ  000    S                       F8C23Y120VVFCY151     000222
3 CZ  3660101J27OCT1329MAR141234567 KUL01500150+0800  CAN05550555+0800  320                                                     HHA      CZ 3380    S                       F8C23Y120VVFCY151     000223
3 CZ  3670101J27OCT1328MAR141234567 CAN12001200+0800  SGN14501450+0700  738                                                     WUH      CZ  368    S                       F8C23Y129VVFCY160     000224
3 CZ  3670201J29MAR1429MAR14     6  CAN12001200+0800  SGN14501450+0700  738                                                     WUH      CZ  000    S                       F8C23Y129VVFCY160     000225
3 CZ  3680101J27OCT1329MAR141234567 SGN01300130+0700  CAN04150415+0800  738                                                     WUH      CZ 3348    S                       F8C23Y129VVFCY160     000226
3 CZ  3690101J27OCT1329MAR141234567 WUH04400440+0800  PVG06150615+0800  73G                                                     WUH                 S                       F8C23Y88VVFCY119      000227
3 CZ  3690102J27OCT1329MAR141234567 PVG07150715+0800  ICN08550855+0900  73G                                                     WUH      CZ  370    S                       F8C23Y88VVFCY119      000228
3 CZ  3700101J27OCT1328MAR141234567 ICN09550955+0900  PVG12001200+0800  73G                                                     WUH                 S                       F8C23Y88VVFCY119      000229
3 CZ  3700102J27OCT1328MAR141234567 PVG13001300+0800  WUH14501450+0800  73G                                                     WUH      CZ 3347    S                       F8C23Y88VVFCY119      000230
3 CZ  3700201J29MAR1429MAR14     6  ICN09550955+0900  PVG12001200+0800  73G                                                     WUH                 S                       F8C23Y88VVFCY119      000231
3 CZ  3700202J29MAR1429MAR14     6  PVG13001300+0800  WUH14501450+0800  73G                                                     WUH      CZ  000    S                       F8C23Y88VVFCY119      000232
3 CZ  3710101J27OCT1329MAR141234567 CAN00400040+0800  HAN02400240+0700  73G                                                     CAN      CZ  372    S                       F8C23Y88VVFCY119      000233
3 CZ  3720101J27OCT1329MAR141234567 HAN03400340+0700  CAN05250525+0800  73G                                                     CAN      CZ 3437    S                       F8C23Y88VVFCY119      000234
3 CZ  3730101J27OCT1329MAR141234567 CAN04300430+0800  SGN07250725+0700  320                                                     CAN      CZ  374    S                       F8C23Y120VVFCY151     000235
3 CZ  3740101J27OCT1328MAR141234567 SGN08300830+0700  CAN11201120+0800  320                                                     CAN      CZ 3715    S                       F8C23Y120VVFCY151     000236
3 CZ  3740201J29MAR1429MAR14     6  SGN08300830+0700  CAN11201120+0800  320                                                     CAN      CZ 3215    S                       F8C23Y120VVFCY151     000237
3 CZ  3750101J27OCT1329MAR141234567 SWA00100010+0800  BKK03200320+0700  738                                                     SWA      CZ  376    S                       F8C23Y132VVFCY163     000238
3 CZ  3760101J27OCT1329MAR141234567 BKK04100410+0700  SWA07100710+0800  738                                                     SWA      CZ 3889    S                       F8C23Y132VVFCY163     000239
3 CZ  3770101J27OCT1328MAR141234567 PEK08150815+0800  XMN11051105+0800  321                                                     PEK                 S                       F12C23Y143VVFCY178    000240
3 CZ  3770102J27OCT1328MAR141234567 XMN12151215+0800  MNL14301430+0800  321                                                     PEK      CZ  378    S                       F12C23Y143VVFCY178    000241
3 CZ  3770201J29MAR1429MAR14     6  PEK08150815+0800  XMN11051105+0800  321                                                     PEK                 S                       F12C23Y143VVFCY178    000242
3 CZ  3770202J29MAR1429MAR14     6  XMN12151215+0800  MNL14301430+0800  321                                                     PEK      CZ  000    S                       F12C23Y143VVFCY178    000243
3 CZ  3780101J27OCT1329MAR141234567 MNL00450045+0800  XMN03000300+0800  321                                                     PEK                 S                       F12C23Y143VVFCY178    000244
3 CZ  3780102J27OCT1329MAR141234567 XMN04050405+0800  PEK06450645+0800  321                                                     PEK      CZ 6948    S                       F12C23Y143VVFCY178    000245
3 CZ  3790101J27OCT1328MAR141234567 CAN06000600+0800  PVG08200820+0800  320                                                     SYX                 S                       F8C23Y120VVFCY151     000246
3 CZ  3790102J27OCT1328MAR141234567 PVG09550955+0800  NGO12051205+0900  320                                                     SYX      CZ  380    S                       F8C23Y120VVFCY151     000247
3 CZ  3790201J29MAR1429MAR14     6  CAN06000600+0800  PVG08200820+0800  320                                                     SYX                 S                       F8C23Y120VVFCY151     000248
3 CZ  3790202J29MAR1429MAR14     6  PVG09550955+0800  NGO12051205+0900  320                                                     SYX      CZ  000    S                       F8C23Y120VVFCY151     000249
3 CZ  3800101J27OCT1329MAR141234567 NGO00350035+0900  PVG02500250+0800  320                                                     SYX                 S                       F8C23Y120VVFCY151     000250
3 CZ  3800102J27OCT1329MAR141234567 PVG04450445+0800  CAN07200720+0800  320                                                     SYX      CZ 6730    S                       F8C23Y120VVFCY151     000251
3 CZ  3810101J27OCT1317NOV13123 5 7 CAN13151315+0800  BNE22302230+1000  332                                                     CAN      CZ  382    S                       F28C47Y142VVFCY217    000252
3 CZ  3810201J18NOV1328MAR141234567 CAN13151315+0800  BNE22302230+1000  332                                                     CAN      CZ  382    S                       F28C47Y142VVFCY217    000253
3 CZ  3820101J27OCT1317NOV13 2    7 BNE23552355+1000  CAN09000900+0800  332                                                     CAN      CZ  381    S                       F28C47Y142VVFCY217    000254
3 CZ  3820201J28OCT1318NOV131 3 5   BNE23552355+1000  CAN09000900+0800  332                                                     CAN      CZ  319    S                       F28C47Y142VVFCY217    000255
3 CZ  3820301J19NOV1327MAR14 234567 BNE23552355+1000  CAN09000900+0800  332                                                     CAN      CZ  381    S                       F28C47Y142VVFCY217    000256
3 CZ  3820401J25NOV1324MAR141       BNE23552355+1000  CAN09000900+0800  332                                                     CAN      CZ  319    S                       F28C47Y142VVFCY217    000257
3 CZ  3820501J28MAR1428MAR14    5   BNE23552355+1000  CAN09000900+0800  332                                                     CAN      CZ  319    S                       F28C47Y142VVFCY217    000258
3 CZ  3830101J27OCT1329MAR141234567 CAN11051105+0800  DXB20102010+0400  77B                                                     CAN      CZ  384    S                       F24C51Y207VVFCY282    000259
3 CZ  3840101J27OCT1303NOV1312345 7 DXB21402140+0400  CAN04300430+0800  77B                                                     CAN      CZ 3109    S                       F24C51Y207VVFCY282    000260
3 CZ  3840201J02NOV1326MAR14  3  6  DXB21402140+0400  CAN04300430+0800  77B                                                     CAN      CZ 3083    S                       F24C51Y207VVFCY282    000261
3 CZ  3840301J04NOV1328MAR1412 45 7 DXB21402140+0400  CAN04300430+0800  77B                                                     CAN      CZ 3109    S                       F24C51Y207VVFCY282    000262
3 CZ  3840401J29MAR1429MAR14     6  DXB21402140+0400  CAN04300430+0800  77B                                                     CAN      CZ  000    S                       F24C51Y207VVFCY282    000263
3 CZ  3850101J27OCT1329MAR141234567 CAN01300130+0800  NRT05200520+09001 787                                                     CAN      CZ  386    S                       F4C24Y200VVFCY228     000264
3 CZ  3860101J27OCT1331OCT131234  7 NRT06300630+09001 CAN11301130+0800  787                                                     CAN      CZ 3101    S                       F4C24Y200VVFCY228     000265
3 CZ  3860201J01NOV1301DEC13    567 NRT06300630+09001 CAN11301130+0800  787                                                     CAN      CZ 3523    S                       F4C24Y200VVFCY228     000266
3 CZ  3860301J04NOV1303DEC131234    NRT06300630+09001 CAN11301130+0800  787                                                     CAN      CZ 3101    S                       F4C24Y200VVFCY228     000267
3 CZ  3860401J04DEC1315DEC13  345 7 NRT06300630+09001 CAN11301130+0800  787                                                     CAN      CZ 3523    S                       F4C24Y200VVFCY228     000268
3 CZ  3860501J07DEC1314DEC131    6  NRT06300630+09001 CAN11301130+0800  787                                                     CAN      CZ  305    S                       F4C24Y200VVFCY228     000269
3 CZ  3860601J10DEC1310DEC13 2      NRT06300630+09001 CAN11301130+0800  787                                                     CAN      CZ 3101    S                       F4C24Y200VVFCY228     000270
3 CZ  3860701J16DEC1318JAN141  4 6  NRT06300630+09001 CAN11301130+0800  787                                                     CAN      CZ  305    S                       F4C24Y200VVFCY228     000271
3 CZ  3860801J17DEC1319JAN14 23 5 7 NRT06300630+09001 CAN11301130+0800  787                                                     CAN      CZ 3523    S                       F4C24Y200VVFCY228     000272
3 CZ  3860901J20JAN1401MAR141    6  NRT06300630+09001 CAN11301130+0800  787                                                     CAN      CZ  305    S                       F4C24Y200VVFCY228     000273
3 CZ  3861001J21JAN1425FEB14 2      NRT06300630+09001 CAN11301130+0800  787                                                     CAN      CZ 3101    S                       F4C24Y200VVFCY228     000274
3 CZ  3861101J22JAN1402MAR14  345 7 NRT06300630+09001 CAN11301130+0800  787                                                     CAN      CZ 3523    S                       F4C24Y200VVFCY228     000275
3 CZ  3861201J03MAR1427MAR141234    NRT06300630+09001 CAN11301130+0800  787                                                     CAN      CZ 3101    S                       F4C24Y200VVFCY228     000276
3 CZ  3861301J07MAR1428MAR14    567 NRT06300630+09001 CAN11301130+0800  787                                                     CAN      CZ 3523    S                       F4C24Y200VVFCY228     000277
3 CZ  3861401J29MAR1429MAR14     6  NRT06300630+09001 CAN11301130+0800  787                                                     CAN      CZ  000    S                       F4C24Y200VVFCY228     000278
3 CZ  3870101J27OCT1328MAR141234567 CAN09000900+0800  CGK14001400+0700  738                                                     SWA      CZ  388    S                       F8C23Y132VVFCY163     000279
3 CZ  3870201J29MAR1429MAR14     6  CAN09000900+0800  CGK14001400+0700  738                                                     SWA      CZ  000    S                       F8C23Y132VVFCY163     000280
3 CZ  3880101J27OCT1329MAR141234567 CGK02050205+0700  CAN07050705+0800  738                                                     SWA      CZ 3928    S                       F8C23Y132VVFCY163     000281
3 CZ  3890101J27OCT1329MAR141234567 CAN00300030+0800  KIX04000400+0900  321                                                     CAN      CZ  390    S                       F12C23Y143VVFCY178    000282
3 CZ  3900101J27OCT1329MAR141234567 KIX05000500+0900  CAN09250925+0800  321                                                     CAN      CZ 3647    S                       F12C23Y143VVFCY178    000283
3 CZ  3910101J27OCT1329MAR141234567 CAN13401340+0800  DAC18151815+0600  738                                                     CAN      CZ  392    S                       F8C23Y132VVFCY163     000284
3 CZ  3920101J27OCT1328MAR141234567 DAC19251925+0600  CAN22502250+0800  738                                                     CAN      CZ 3777    S                       F8C23Y132VVFCY163     000285
3 CZ  3920201J29MAR1429MAR14     6  DAC19251925+0600  CAN22502250+0800  738                                                     CAN      CZ  000    S                       F8C23Y132VVFCY163     000286
3 CZ  3930101J27OCT1328MAR141234567 CAN09300930+0800  KIX13001300+0900  321                                                     CAN      CZ  394    S                       F12C23Y143VVFCY178    000287
4 CZ  3930101J              AB901CANKIX270320 ZBBBCKXX OCT                                                                                                                                        000288
3 CZ  3930201J29MAR1429MAR14     6  CAN09300930+0800  KIX13001300+0900  321                                                     CAN      CZ  000    S                       F12C23Y143VVFCY178    000289
4 CZ  3930201J              AB901CANKIX270320 ZBBBCKXX OCT                                                                                                                                        000290
3 CZ  3940101J28OCT1329MAR141234567 KIX01000100+0900  CAN05250525+0800  321                                                     CAN      CZ 3527    S                       F12C23Y143VVFCY178    000291
4 CZ  3940101J              AB901KIXCAN270320 ZBBBCKXX OCT                                                                                                                                        000292
3 CZ  3950101J27OCT1328MAR141234567 CAN09050905+0800  PEN13001300+0800  320                                                     SZX      CZ  396    S                       F8C23Y120VVFCY151     000293
3 CZ  3950201J29MAR1429MAR14     6  CAN09050905+0800  PEN13001300+0800  320                                                     SZX      CZ  000    S                       F8C23Y120VVFCY151     000294
3 CZ  3960101J27OCT1329MAR141234567 PEN01050105+0800  CAN05000500+0800  320                                                     SZX      CZ 3689    S                       F8C23Y120VVFCY151     000295
3 CZ  3970101J27OCT1329MAR141234567 CAN06150615+0800  MNL08350835+0800  73G                                                     CAN      CZ  398    S                       F8C23Y88VVFCY119      000296
3 CZ  3980101J27OCT1328MAR141234567 MNL09350935+0800  CAN12001200+0800  73G                                                     CAN      CZ 3091    S                       F8C23Y88VVFCY119      000297
3 CZ  3980201J29MAR1429MAR14     6  MNL09350935+0800  CAN12001200+0800  73G                                                     CAN      CZ  000    S                       F8C23Y88VVFCY119      000298
3 CZ  4310101F27OCT1327MAR14   4  7 PVG01300130+0800  ANC10001000-0900  77F                                                     CAN                 S                       VV0                   000299
3 CZ  4310102F27OCT1327MAR14   4  7 ANC11201120-0900  ORD16551655-0600  77F                                                     CAN      CZ  432    S                       VV0                   000300
3 CZ  4310201F29OCT1328MAR14 2  5   PVG22002200+0800  ANC06300630-0900  77F                                                     CAN                 S                       VV0                   000301
3 CZ  4310202F30OCT1329MAR14  3  6  ANC08000800-0900  ORD13401340-0600  77F                                                     CAN      CZ  478    S                       VV0                   000302
3 CZ  4320101F27OCT1323MAR14      7 ORD19251925-0600  PVG10001000+0800  77F                                                     CAN      CZ  4772   S                       VV0                   000303
3 CZ  4320201F30OCT1326MAR14  3     ORD18301830-0600  ANC01000100-0900  77F                                                     CAN                 S                       VV0                   000304
3 CZ  4320202F31OCT1327MAR14   4    ANC02300230-0900  PVG15051505+0800  77F                                                     CAN      CZ  451    S                       VV0                   000305
3 CZ  4320301F31OCT1327MAR14   4    ORD19251925-0600  PVG10001000+0800  77F                                                     CAN      CZ  463    S                       VV0                   000306
3 CZ  4320401F02NOV1322MAR14     6  ORD18301830-0600  ANC01000100-0900  77F                                                     CAN                 S                       VV0                   000307
3 CZ  4320402F03NOV1323MAR14      7 ANC02300230-0900  PVG15051505+0800  77F                                                     CAN      CZ  453    S                       VV0                   000308
3 CZ  4320501F29MAR1429MAR14     6  ORD18301830-0600  ANC01000100-0900  77F                                                     CAN      CZ  000    S                       VV0                   000309
3 CZ  4370101F30OCT1331OCT13  34    PVG16251625+0800  LAX03500350-0700  77F                                                     CAN      CZ  438    S                       VV0                   000310
3 CZ  4370201F06NOV1306MAR14  34    PVG16251625+0800  LAX03500350-0800  77F                                                     CAN      CZ  438    S                       VV0                   000311
3 CZ  4370301F12MAR1427MAR14  34    PVG16251625+0800  LAX03500350-0700  77F                                                     CAN      CZ  438    S                       VV0                   000312
3 CZ  4380101F31OCT1331OCT13   4    LAX06200620-0700  PVG19451945+0800  77F                                                     CAN      CZ  461    S                       VV0                   000313
3 CZ  4380201F01NOV1301NOV13    5   LAX06200620-0700  PVG19451945+0800  77F                                                     CAN      CZ  431    S                       VV0                   000314
3 CZ  4380301F07NOV1306MAR14   4    LAX06200620-0800  PVG19451945+0800  77F                                                     CAN      CZ  461    S                       VV0                   000315
3 CZ  4380401F08NOV1307MAR14    5   LAX06200620-0800  PVG19451945+0800  77F                                                     CAN      CZ  431    S                       VV0                   000316
3 CZ  4380501F13MAR1427MAR14   4    LAX06200620-0700  PVG19451945+0800  77F                                                     CAN      CZ  461    S                       VV0                   000317
3 CZ  4380601F14MAR1428MAR14    5   LAX06200620-0700  PVG19451945+0800  77F                                                     CAN      CZ  431    S                       VV0                   000318
3 CZ  4390101F27OCT1301NOV13  3 5 7 CAN21002100+0800  TAO23352335+0800  77F                                                     CAN                 S                       VV0                   000319
3 CZ  4390102F28OCT1302NOV131  4 6  TAO01000100+0800  LAX12351235-0700  77F                                                     CAN      CZ  470    S                       VV0                   000320
3 CZ  4390201F03NOV1307MAR14  3 5 7 CAN21002100+0800  TAO23352335+0800  77F                                                     CAN                 S                       VV0                   000321
3 CZ  4390202F04NOV1308MAR141  4 6  TAO01000100+0800  LAX12351235-0800  77F                                                     CAN      CZ  470    S                       VV0                   000322
3 CZ  4390301F09MAR1428MAR14  3 5 7 CAN21002100+0800  TAO23352335+0800  77F                                                     CAN                 S                       VV0                   000323
3 CZ  4390302F10MAR1429MAR141  4 6  TAO01000100+0800  LAX12351235-0700  77F                                                     CAN      CZ  470    S                       VV0                   000324
3 CZ  4400101F28OCT1328OCT131       LAX15251525-0700  CAN06450645+0800  77F                                                     CAN      CZ  465    S                       VV0                   000325
3 CZ  4400201F31OCT1302NOV13   4 6  LAX15251525-0700  CAN06450645+0800  77F                                                     CAN      CZ  469    S                       VV0                   000326
3 CZ  4400301F04NOV1303MAR141       LAX15251525-0800  CAN06450645+0800  77F                                                     CAN      CZ  465    S                       VV0                   000327
3 CZ  4400401F07NOV1308MAR14   4 6  LAX15251525-0800  CAN06450645+0800  77F                                                     CAN      CZ  469    S                       VV0                   000328
3 CZ  4400501F10MAR1424MAR141       LAX15251525-0700  CAN06450645+0800  77F                                                     CAN      CZ  465    S                       VV0                   000329
3 CZ  4400601F13MAR1427MAR14   4 6  LAX15251525-0700  CAN06450645+0800  77F                                                     CAN      CZ  469    S                       VV0                   000330
3 CZ  4400701F29MAR1429MAR14     6  LAX15251525-0700  CAN06450645+0800  77F                                                     CAN      CZ  000    S                       VV0                   000331
3 CZ  4430101F27OCT1327MAR14   4  7 PVG22002200+0800  ANC06300630-0900  77F                                                     CAN                 S                       VV0                   000332
3 CZ  4430102F28OCT1328MAR141   5   ANC08000800-0900  ORD13401340-0600  77F                                                     CAN      CZ  444    S                       VV0                   000333
3 CZ  4440101F28OCT1324MAR141       ORD18301830-0600  ANC01000100-0900  77F                                                     CAN                 S                       VV0                   000334
3 CZ  4440102F29OCT1325MAR14 2      ANC02300230-0900  PVG15051505+0800  77F                                                     CAN      CZ  431    S                       VV0                   000335
3 CZ  4440201F01NOV1328MAR14    5   ORD18301830-0600  ANC01000100-0900  77F                                                     CAN                 S                       VV0                   000336
3 CZ  4440202F02NOV1329MAR14     6  ANC02300230-0900  PVG15051505+0800  77F                                                     CAN      CZ  451    S                       VV0                   000337
3 CZ  4490101F27OCT1301NOV13 2  5 7 PVG16251625+0800  LAX03500350-0700  77F                                                     CAN      CZ  450    S                       VV0                   000338
3 CZ  4490201F03NOV1307MAR14 2  5 7 PVG16251625+0800  LAX03500350-0800  77F                                                     CAN      CZ  450    S                       VV0                   000339
3 CZ  4490301F09MAR1428MAR14 2  5 7 PVG16251625+0800  LAX03500350-0700  77F                                                     CAN      CZ  450    S                       VV0                   000340
3 CZ  4500101F28OCT1328OCT131       LAX05500550-0700  YVR08350835-0700  77F                                                     CAN                 S                       VV0                   000341
3 CZ  4500102F28OCT1328OCT131       YVR10351035-0700  PVG22252225+0800  77F                                                     CAN      CZ  477    S                       VV0                   000342
3 CZ  4500201F30OCT1330OCT13  3     LAX05500550-0700  YVR08350835-0700  77F                                                     CAN                 S                       VV0                   000343
3 CZ  4500202F30OCT1330OCT13  3     YVR10351035-0700  PVG22252225+0800  77F                                                     CAN      CZ  463    S                       VV0                   000344
3 CZ  4500301F02NOV1302NOV13     6  LAX05500550-0700  YVR08350835-0700  77F                                                     CAN                 S                       VV0                   000345
3 CZ  4500302F02NOV1302NOV13     6  YVR10351035-0700  PVG22252225+0800  77F                                                     CAN      CZ  461    S                       VV0                   000346
3 CZ  4500401F04NOV1303MAR141       LAX05500550-0800  YVR08350835-0800  77F                                                     CAN                 S                       VV0                   000347
3 CZ  4500402F04NOV1303MAR141       YVR10351035-0800  PVG22252225+0800  77F                                                     CAN      CZ  477    S                       VV0                   000348
3 CZ  4500501F06NOV1305MAR14  3     LAX05500550-0800  YVR08350835-0800  77F                                                     CAN                 S                       VV0                   000349
3 CZ  4500502F06NOV1305MAR14  3     YVR10351035-0800  PVG22252225+0800  77F                                                     CAN      CZ  463    S                       VV0                   000350
3 CZ  4500601F09NOV1308MAR14     6  LAX05500550-0800  YVR08350835-0800  77F                                                     CAN                 S                       VV0                   000351
3 CZ  4500602F09NOV1308MAR14     6  YVR10351035-0800  PVG22252225+0800  77F                                                     CAN      CZ  461    S                       VV0                   000352
3 CZ  4500701F10MAR1424MAR141       LAX05500550-0700  YVR08350835-0700  77F                                                     CAN                 S                       VV0                   000353
3 CZ  4500702F10MAR1424MAR141       YVR10351035-0700  PVG22252225+0800  77F                                                     CAN      CZ  477    S                       VV0                   000354
3 CZ  4500801F12MAR1426MAR14  3     LAX05500550-0700  YVR08350835-0700  77F                                                     CAN                 S                       VV0                   000355
3 CZ  4500802F12MAR1426MAR14  3     YVR10351035-0700  PVG22252225+0800  77F                                                     CAN      CZ  463    S                       VV0                   000356
3 CZ  4500901F15MAR1422MAR14     6  LAX05500550-0700  YVR08350835-0700  77F                                                     CAN                 S                       VV0                   000357
3 CZ  4500902F15MAR1422MAR14     6  YVR10351035-0700  PVG22252225+0800  77F                                                     CAN      CZ  461    S                       VV0                   000358
3 CZ  4501001F29MAR1429MAR14     6  LAX05500550-0700  YVR08350835-0700  77F                                                     CAN                 S                       VV0                   000359
3 CZ  4501002F29MAR1429MAR14     6  YVR10351035-0700  PVG22252225+0800  77F                                                     CAN      CZ  000    S                       VV0                   000360
3 CZ  4510101F29OCT1325MAR14 2      PVG16051605+0800  AMS04000400+0100  77F                                                     CAN      CZ  452    S                       VV0                   000361
3 CZ  4510201F31OCT1327MAR14   4 6  PVG16051605+0800  AMS04000400+0100  77F                                                     CAN      CZ  456    S                       VV0                   000362
3 CZ  4510301F29MAR1429MAR14     6  PVG16051605+0800  AMS04000400+0200  77F                                                     CAN      CZ  000    S                       VV0                   000363
3 CZ  4520101F27OCT1323MAR14      7 AMS06550655+0100  VIE08400840+0100  77F                                                     CAN                 S                       VV0                   000364
3 CZ  4520102F27OCT1323MAR14      7 VIE10301030+0100  PVG20302030+0800  77F                                                     CAN      CZ  443    S                       VV0                   000365
3 CZ  4520201F30OCT1326MAR14  3     AMS06550655+0100  VIE08400840+0100  77F                                                     CAN                 S                       VV0                   000366
3 CZ  4520202F30OCT1326MAR14  3     VIE10301030+0100  PVG20302030+0800  77F                                                     CAN      CZ  459    S                       VV0                   000367
3 CZ  4520301F01NOV1328MAR14    5   AMS06550655+0100  VIE08400840+0100  77F                                                     CAN                 S                       VV0                   000368
3 CZ  4520302F01NOV1328MAR14    5   VIE10301030+0100  PVG20302030+0800  77F                                                     CAN      CZ  477    S                       VV0                   000369
3 CZ  4530101F27OCT1323MAR14      7 PVG16051605+0800  AMS04000400+0100  77F                                                     CAN      CZ  458    S                       VV0                   000370
3 CZ  4530201F30OCT1326MAR14  3     PVG16051605+0800  AMS04000400+0100  77F                                                     CAN      CZ  479    S                       VV0                   000371
3 CZ  4530301F01NOV1328MAR14    5   PVG16051605+0800  AMS04000400+0100  77F                                                     CAN      CZ  458    S                       VV0                   000372
3 CZ  4540101F02NOV1322MAR14     6  AMS07000700+0100  PVG18051805+0800  77F                                                     CAN      CZ  477    S                       VV0                   000373
3 CZ  4540201F29MAR1429MAR14     6  AMS07000700+0100  PVG18051805+0800  77F                                                     CAN      CZ  461    S                       VV0                   000374
3 CZ  4550101F29OCT1325MAR14 2      CAN15301530+0800  CKG17201720+0800  77F                                                     CAN                 S                       VV0                   000375
3 CZ  4550102F29OCT1325MAR14 2      CKG19301930+0800  AMS06300630+0100  77F                                                     CAN      CZ  456    S                       VV0                   000376
3 CZ  4550201F31OCT1327MAR14   4 6  CAN15301530+0800  AMS03300330+0100  77F                                                     CAN      CZ  452    S                       VV0                   000377
3 CZ  4550301F29MAR1429MAR14     6  CAN15301530+0800  AMS03300330+0200  77F                                                     CAN      CZ  000    S                       VV0                   000378
3 CZ  4560101F27OCT1328MAR14    5 7 AMS06300630+0100  CAN17301730+0800  77F                                                     CAN      CZ  439    S                       VV0                   000379
3 CZ  4560201F30OCT1326MAR14  3     AMS09300930+0100  CAN20302030+0800  77F                                                     CAN      CZ  439    S                       VV0                   000380
3 CZ  4570101F27OCT1323MAR14      7 CAN15301530+0800  AMS03300330+0100  77F                                                     CAN      CZ  479    S                       VV0                   000381
3 CZ  4570201F30OCT1326MAR14  3     CAN15301530+0800  CKG17201720+0800  77F                                                     CAN                 S                       VV0                   000382
3 CZ  4570202F30OCT1326MAR14  3     CKG19301930+0800  AMS06300630+0100  77F                                                     CAN      CZ  458    S                       VV0                   000383
3 CZ  4570301F01NOV1328MAR14    5   CAN15301530+0800  CKG17201720+0800  77F                                                     CAN                 S                       VV0                   000384
3 CZ  4570302F01NOV1328MAR14    5   CKG19301930+0800  AMS06300630+0100  77F                                                     CAN      CZ  454    S                       VV0                   000385
3 CZ  4580101F28OCT1324MAR141       AMS06300630+0100  CAN17301730+0800  77F                                                     CAN      CZ  4571   S                       VV0                   000386
3 CZ  4580201F31OCT1327MAR14   4    AMS09300930+0100  CAN20302030+0800  77F                                                     CAN      CZ  465    S                       VV0                   000387
3 CZ  4580301F02NOV1323NOV13     6  AMS09300930+0100  CAN20302030+0800  77F                                                     CAN      CZ  457    S                       VV0                   000388
3 CZ  4580401F30NOV1322MAR14     6  AMS09300930+0100  CAN20302030+0800  77F                                                     CAN      CZ 8497    S                       VV0                   000389
3 CZ  4580501F29MAR1429MAR14     6  AMS09300930+0100  CAN20302030+0800  77F                                                     CAN      CZ  000    S                       VV0                   000390
3 CZ  4590101F28OCT1324MAR141       PVG21002100+0800  AMS09000900+0100  77F                                                     CAN      CZ  460    S                       VV0                   000391
3 CZ  4590201F30OCT1326MAR14  3     PVG22352235+0800  AMS13301330+0100  77F                                                     CAN      CZ  460    S                       VV0                   000392
3 CZ  4600101F29OCT1325MAR14 2      AMS12001200+0100  PVG22252225+0800  77F                                                     CAN      CZ  461    S                       VV0                   000393
3 CZ  4600201F31OCT1320MAR14   4    AMS16301630+0100  VIE18101810+0100  77F                                                     CAN                 S                       VV0                   000394
3 CZ  4600202F31OCT1320MAR14   4    VIE20002000+0100  PVG06000600+0800  77F                                                     CAN      CZ  4535   S                       VV0                   000395
3 CZ  4600301F27MAR1427MAR14   4    AMS16301630+0100  VIE18101810+0100  77F                                                     CAN                 S                       VV0                   000396
3 CZ  4600302F27MAR1427MAR14   4    VIE20002000+0100  PVG06000600+0800  77F                                                     CAN      CZ  4771   S                       VV0                   000397
3 CZ  4610101F29OCT1325MAR14 2   6  PVG22552255+0800  FRA11401140+0100  77F                                                     CAN      CZ  462    S                       VV0                   000398
3 CZ  4610201F31OCT1327MAR14   4    PVG22552255+0800  FRA11401140+0100  77F                                                     CAN      CZ  466    S                       VV0                   000399
3 CZ  4610301F29MAR1429MAR14     6  PVG22552255+0800  FRA11401140+0200  77F                                                     CAN      CZ  000    S                       VV0                   000400
3 CZ  4620101F27OCT1323MAR14      7 FRA14201420+0100  PVG22502250+0800  77F                                                     CAN      CZ  4372   S                       VV0                   000401
3 CZ  4620201F30OCT1326MAR14  3     FRA14201420+0100  PVG22502250+0800  77F                                                     CAN      CZ  431    S                       VV0                   000402
3 CZ  4620301F01NOV1321MAR14    5   FRA14201420+0100  PVG22502250+0800  77F                                                     CAN      CZ  4632   S                       VV0                   000403
3 CZ  4620401F28MAR1428MAR14    5   FRA14201420+0100  PVG22502250+0800  77F                                                     CAN      CZ  000    S                       VV0                   000404
3 CZ  4630101F27OCT1328MAR14  3 5 7 PVG22552255+0800  FRA11401140+0100  77F                                                     CAN      CZ  464    S                       VV0                   000405
3 CZ  4640101F28OCT1324MAR141       FRA14201420+0100  PVG22502250+0800  77F                                                     CAN      CZ  451    S                       VV0                   000406
3 CZ  4640201F31OCT1327MAR14   4    FRA14201420+0100  PVG22502250+0800  77F                                                     CAN      CZ  453    S                       VV0                   000407
3 CZ  4640301F02NOV1322MAR14     6  FRA14201420+0100  PVG22502250+0800  77F                                                     CAN      CZ  431    S                       VV0                   000408
3 CZ  4640401F29MAR1429MAR14     6  FRA14201420+0100  PVG22502250+0800  77F                                                     CAN      CZ  000    S                       VV0                   000409
3 CZ  4650101F27OCT1325MAR14 2    7 CAN17001700+0800  FRA05000500+0100  77F                                                     CAN      CZ  466    S                       VV0                   000410
3 CZ  4650201F31OCT1327MAR14   4    CAN23202320+0800  FRA11201120+0100  77F                                                     CAN      CZ  462    S                       VV0                   000411
3 CZ  4660101F28OCT1324MAR141       FRA07300730+0100  CAN18301830+0800  77F                                                     CAN      CZ  4552   S                       VV0                   000412
3 CZ  4660201F30OCT1326MAR14  3     FRA07300730+0100  CAN18301830+0800  77F                                                     CAN      CZ  469    S                       VV0                   000413
3 CZ  4660301F01NOV1328MAR14    5   FRA13301330+0100  CAN00150015+0800  77F                                                     CAN      CZ  455    S                       VV0                   000414
3 CZ  4690101F27OCT1301NOV13  3 5 7 CAN21302130+0800  HGH23202320+0800  77F                                                     CAN                 S                       VV0                   000415
3 CZ  4690102F28OCT1302NOV131  4 6  HGH01000100+0800  LAX12451245-0700  77F                                                     CAN      CZ  440    S                       VV0                   000416
3 CZ  4690201F03NOV1307MAR14  3 5 7 CAN21302130+0800  HGH23202320+0800  77F                                                     CAN                 S                       VV0                   000417
3 CZ  4690202F04NOV1308MAR141  4 6  HGH01000100+0800  LAX12451245-0800  77F                                                     CAN      CZ  440    S                       VV0                   000418
3 CZ  4690301F09MAR1428MAR14  3 5 7 CAN21302130+0800  HGH23202320+0800  77F                                                     CAN                 S                       VV0                   000419
3 CZ  4690302F10MAR1429MAR141  4 6  HGH01000100+0800  LAX12451245-0700  77F                                                     CAN      CZ  440    S                       VV0                   000420
3 CZ  4700101F28OCT1328OCT131       LAX15351535-0700  CGO05250525+0800  77F                                                     CAN                 S                       VV0                   000421
3 CZ  4700102F29OCT1329OCT13 2      CGO07250725+0800  CAN09300930+0800  77F                                                     CAN      CZ  455    S                       VV0                   000422
3 CZ  4700201F31OCT1331OCT13   4    LAX15351535-0700  CGO05250525+0800  77F                                                     CAN                 S                       VV0                   000423
3 CZ  4700202F01NOV1301NOV13    5   CGO07250725+0800  CAN09300930+0800  77F                                                     CAN      CZ  457    S                       VV0                   000424
3 CZ  4700301F02NOV1302NOV13     6  LAX15351535-0700  CGO05250525+0800  77F                                                     CAN                 S                       VV0                   000425
3 CZ  4700302F03NOV1303NOV13      7 CGO07250725+0800  CAN09300930+0800  77F                                                     CAN      CZ  465    S                       VV0                   000426
3 CZ  4700401F04NOV1303MAR141       LAX15351535-0800  CGO05250525+0800  77F                                                     CAN                 S                       VV0                   000427
3 CZ  4700402F05NOV1304MAR14 2      CGO07250725+0800  CAN09300930+0800  77F                                                     CAN      CZ  455    S                       VV0                   000428
3 CZ  4700501F07NOV1306MAR14   4    LAX15351535-0800  CGO05250525+0800  77F                                                     CAN                 S                       VV0                   000429
3 CZ  4700502F08NOV1307MAR14    5   CGO07250725+0800  CAN09300930+0800  77F                                                     CAN      CZ  457    S                       VV0                   000430
3 CZ  4700601F09NOV1308MAR14     6  LAX15351535-0800  CGO05250525+0800  77F                                                     CAN                 S                       VV0                   000431
3 CZ  4700602F10NOV1309MAR14      7 CGO07250725+0800  CAN09300930+0800  77F                                                     CAN      CZ  465    S                       VV0                   000432
3 CZ  4700701F10MAR1424MAR141       LAX15351535-0700  CGO05250525+0800  77F                                                     CAN                 S                       VV0                   000433
3 CZ  4700702F11MAR1425MAR14 2      CGO07250725+0800  CAN09300930+0800  77F                                                     CAN      CZ  455    S                       VV0                   000434
3 CZ  4700801F13MAR1427MAR14   4    LAX15351535-0700  CGO05250525+0800  77F                                                     CAN                 S                       VV0                   000435
3 CZ  4700802F14MAR1428MAR14    5   CGO07250725+0800  CAN09300930+0800  77F                                                     CAN      CZ  457    S                       VV0                   000436
3 CZ  4700901F15MAR1422MAR14     6  LAX15351535-0700  CGO05250525+0800  77F                                                     CAN                 S                       VV0                   000437
3 CZ  4700902F16MAR1423MAR14      7 CGO07250725+0800  CAN09300930+0800  77F                                                     CAN      CZ  465    S                       VV0                   000438
3 CZ  4701001F29MAR1429MAR14     6  LAX15351535-0700  CGO05250525+0800  77F                                                     CAN      CZ  000    S                       VV0                   000439
3 CZ  4770101F29OCT1328MAR14 2  5   PVG22002200+0800  CGO23502350+0800  77F                                                     CAN                 S                       VV0                   000440
3 CZ  4770102F30OCT1329MAR14  3  6  CGO01300130+0800  ANC10001000-0900  77F                                                     CAN                 S                       VV0                   000441
3 CZ  4770103F30OCT1329MAR14  3  6  ANC11201120-0900  ORD16551655-0600  77F                                                     CAN      CZ  432    S                       VV0                   000442
3 CZ  4770201F30OCT1326MAR14  3  6  PVG22002200+0800  CGO23502350+0800  77F                                                     CAN                 S                       VV0                   000443
3 CZ  4770202F31OCT1327MAR14   4  7 CGO01300130+0800  ANC10001000-0900  77F                                                     CAN                 S                       VV0                   000444
3 CZ  4770203F31OCT1327MAR14   4  7 ANC11201120-0900  ORD16551655-0600  77F                                                     CAN      CZ  478    S                       VV0                   000445
3 CZ  4770301F29MAR1429MAR14     6  PVG22002200+0800  CGO23502350+0800  77F                                                     CAN                 S                       VV0                   000446
3 CZ  4770302F30MAR1430MAR14      7 CGO01300130+0800  ANC10001000-0900  77F                                                     CAN                 S                       VV0                   000447
3 CZ  4770303F30MAR1430MAR14      7 ANC11201120-0900  ORD16551655-0600  77F                                                     CAN      CZ  000    S                       VV0                   000448
3 CZ  4780101F30OCT1326MAR14  3     ORD19251925-0600  PVG10001000+0800  77F                                                     CAN      CZ  437    S                       VV0                   000449
3 CZ  4780201F31OCT1327MAR14   4    ORD18301830-0600  ANC01000100-0900  77F                                                     CAN                 S                       VV0                   000450
3 CZ  4780202F01NOV1328MAR14    5   ANC02300230-0900  PVG15051505+0800  77F                                                     CAN      CZ  449    S                       VV0                   000451
3 CZ  4780301F02NOV1322MAR14     6  ORD19251925-0600  PVG10001000+0800  77F                                                     CAN      CZ  449    S                       VV0                   000452
3 CZ  4780401F03NOV1323MAR14      7 ORD18301830-0600  ANC01000100-0900  77F                                                     CAN                 S                       VV0                   000453
3 CZ  4780402F04NOV1324MAR141       ANC02300230-0900  PVG15051505+0800  77F                                                     CAN      CZ  459    S                       VV0                   000454
3 CZ  4780501F29MAR1429MAR14     6  ORD19251925-0600  PVG10001000+0800  77F                                                     CAN      CZ  000    S                       VV0                   000455
3 CZ  4790101F28OCT1324MAR141       AMS06300630+0100  CKG16351635+0800  77F                                                     CAN                 S                       VV0                   000456
3 CZ  4790102F28OCT1324MAR141       CKG18001800+0800  PVG20002000+0800  77F                                                     CAN      CZ  449    S                       VV0                   000457
3 CZ  4790201F31OCT1327MAR14   4    AMS06300630+0100  CKG16351635+0800  77F                                                     CAN                 S                       VV0                   000458
3 CZ  4790202F31OCT1327MAR14   4    CKG18001800+0800  PVG20002000+0800  77F                                                     CAN      CZ  443    S                       VV0                   000459
3 CZ  6050101J27OCT1329MAR141234567 HHA06100610+0800  BKK09300930+0700  320                                                     HHA      CZ  606    S                       F8C23Y120VVFCY151     000460
3 CZ  6060101J27OCT1303NOV13      7 BKK10301030+0700  HHA13301330+0800  320                                                     HHA      CZ 3141    S                       F8C23Y120VVFCY151     000461
3 CZ  6060201J28OCT1326MAR141 3  6  BKK10301030+0700  HHA13301330+0800  320                                                     HHA      CZ 3985    S                       F8C23Y120VVFCY151     000462
3 CZ  6060301J29OCT1328MAR14 2  5   BKK10301030+0700  HHA13301330+0800  320                                                     HHA      CZ 3629    S                       F8C23Y120VVFCY151     000463
3 CZ  6060401J31OCT1331OCT13   4    BKK10301030+0700  HHA13301330+0800  320                                                     HHA      CZ 3147    S                       F8C23Y120VVFCY151     000464
3 CZ  6060501J07NOV1327MAR14   4  7 BKK10301030+0700  HHA13301330+0800  320                                                     HHA      CZ 3141    S                       F8C23Y120VVFCY151     000465
3 CZ  6060601J29MAR1429MAR14     6  BKK10301030+0700  HHA13301330+0800  320                                                     HHA      CZ  000    S                       F8C23Y120VVFCY151     000466
3 CZ  6070101J29OCT1325MAR14 2      HHA14101410+0800  HKT18101810+0700  320                                                     HHA      CZ  000    S                       F8C23Y120VVFCY151     000467
3 CZ  6070201J31OCT1327MAR14   4    HHA14101410+0800  HKT18101810+0700  320                                                     HHA      CZ 3983    S                       F8C23Y120VVFCY151     000468
3 CZ  6070301J02NOV1322MAR14     6  HHA14101410+0800  HKT18101810+0700  320                                                     HHA      CZ 6647    S                       F8C23Y120VVFCY151     000469
3 CZ  6070401J29MAR1429MAR14     6  HHA14101410+0800  HKT18101810+0700  320                                                     HHA      CZ  000    S                       F8C23Y120VVFCY151     000470
3 CZ  6080101J29OCT1325MAR14 2 4 6  HKT19101910+0700  HHA23002300+0800  320                                                     HHA      CZ  000    S                       F8C23Y120VVFCY151     000471
